{
  "contractName": "GGanbuCollection",
  "abi": [
    {
      "inputs": [
        {
          "internalType": "string",
          "name": "collectionName",
          "type": "string"
        },
        {
          "internalType": "string",
          "name": "collectionSymbol",
          "type": "string"
        },
        {
          "internalType": "string",
          "name": "_collectionURI",
          "type": "string"
        }
      ],
      "stateMutability": "nonpayable",
      "type": "constructor"
    },
    {
      "anonymous": false,
      "inputs": [
        {
          "indexed": true,
          "internalType": "address",
          "name": "owner",
          "type": "address"
        },
        {
          "indexed": true,
          "internalType": "address",
          "name": "approved",
          "type": "address"
        },
        {
          "indexed": true,
          "internalType": "uint256",
          "name": "tokenId",
          "type": "uint256"
        }
      ],
      "name": "Approval",
      "type": "event"
    },
    {
      "anonymous": false,
      "inputs": [
        {
          "indexed": true,
          "internalType": "address",
          "name": "owner",
          "type": "address"
        },
        {
          "indexed": true,
          "internalType": "address",
          "name": "operator",
          "type": "address"
        },
        {
          "indexed": false,
          "internalType": "bool",
          "name": "approved",
          "type": "bool"
        }
      ],
      "name": "ApprovalForAll",
      "type": "event"
    },
    {
      "anonymous": false,
      "inputs": [
        {
          "indexed": true,
          "internalType": "address",
          "name": "Owner",
          "type": "address"
        }
      ],
      "name": "OwnershipAdd",
      "type": "event"
    },
    {
      "anonymous": false,
      "inputs": [
        {
          "indexed": true,
          "internalType": "address",
          "name": "Owner",
          "type": "address"
        }
      ],
      "name": "OwnershipDel",
      "type": "event"
    },
    {
      "anonymous": false,
      "inputs": [
        {
          "indexed": true,
          "internalType": "address",
          "name": "from",
          "type": "address"
        },
        {
          "indexed": true,
          "internalType": "address",
          "name": "to",
          "type": "address"
        },
        {
          "indexed": true,
          "internalType": "uint256",
          "name": "tokenId",
          "type": "uint256"
        }
      ],
      "name": "Transfer",
      "type": "event"
    },
    {
      "anonymous": false,
      "inputs": [
        {
          "indexed": true,
          "internalType": "address",
          "name": "contractAddr",
          "type": "address"
        },
        {
          "indexed": false,
          "internalType": "address",
          "name": "collection",
          "type": "address"
        },
        {
          "indexed": false,
          "internalType": "uint256",
          "name": "tokenId",
          "type": "uint256"
        }
      ],
      "name": "_cancel",
      "type": "event"
    },
    {
      "anonymous": false,
      "inputs": [
        {
          "indexed": true,
          "internalType": "address",
          "name": "contractAddr",
          "type": "address"
        },
        {
          "indexed": false,
          "internalType": "address",
          "name": "collection",
          "type": "address"
        },
        {
          "indexed": false,
          "internalType": "uint256",
          "name": "tokenId",
          "type": "uint256"
        },
        {
          "indexed": false,
          "internalType": "uint256",
          "name": "price",
          "type": "uint256"
        }
      ],
      "name": "_sell",
      "type": "event"
    },
    {
      "anonymous": false,
      "inputs": [
        {
          "indexed": false,
          "internalType": "uint256",
          "name": "tokenId",
          "type": "uint256"
        }
      ],
      "name": "burnNft",
      "type": "event"
    },
    {
      "inputs": [
        {
          "internalType": "address",
          "name": "newOwner",
          "type": "address"
        }
      ],
      "name": "addOwnership",
      "outputs": [],
      "stateMutability": "nonpayable",
      "type": "function"
    },
    {
      "inputs": [
        {
          "internalType": "address",
          "name": "to",
          "type": "address"
        },
        {
          "internalType": "uint256",
          "name": "tokenId",
          "type": "uint256"
        }
      ],
      "name": "approve",
      "outputs": [],
      "stateMutability": "nonpayable",
      "type": "function"
    },
    {
      "inputs": [
        {
          "internalType": "address",
          "name": "owner",
          "type": "address"
        }
      ],
      "name": "balanceOf",
      "outputs": [
        {
          "internalType": "uint256",
          "name": "",
          "type": "uint256"
        }
      ],
      "stateMutability": "view",
      "type": "function"
    },
    {
      "inputs": [
        {
          "internalType": "address",
          "name": "Owner",
          "type": "address"
        }
      ],
      "name": "delOwnership",
      "outputs": [],
      "stateMutability": "nonpayable",
      "type": "function"
    },
    {
      "inputs": [
        {
          "internalType": "uint256",
          "name": "tokenId",
          "type": "uint256"
        }
      ],
      "name": "getApproved",
      "outputs": [
        {
          "internalType": "address",
          "name": "",
          "type": "address"
        }
      ],
      "stateMutability": "view",
      "type": "function"
    },
    {
      "inputs": [],
      "name": "getTotal",
      "outputs": [
        {
          "internalType": "uint256",
          "name": "",
          "type": "uint256"
        }
      ],
      "stateMutability": "view",
      "type": "function"
    },
    {
      "inputs": [
        {
          "internalType": "address",
          "name": "owner",
          "type": "address"
        },
        {
          "internalType": "address",
          "name": "operator",
          "type": "address"
        }
      ],
      "name": "isApprovedForAll",
      "outputs": [
        {
          "internalType": "bool",
          "name": "",
          "type": "bool"
        }
      ],
      "stateMutability": "view",
      "type": "function"
    },
    {
      "inputs": [
        {
          "internalType": "address",
          "name": "target",
          "type": "address"
        }
      ],
      "name": "isOwner",
      "outputs": [
        {
          "internalType": "bool",
          "name": "",
          "type": "bool"
        }
      ],
      "stateMutability": "view",
      "type": "function"
    },
    {
      "inputs": [],
      "name": "name",
      "outputs": [
        {
          "internalType": "string",
          "name": "",
          "type": "string"
        }
      ],
      "stateMutability": "view",
      "type": "function"
    },
    {
      "inputs": [
        {
          "internalType": "uint256",
          "name": "tokenId",
          "type": "uint256"
        }
      ],
      "name": "ownerOf",
      "outputs": [
        {
          "internalType": "address",
          "name": "",
          "type": "address"
        }
      ],
      "stateMutability": "view",
      "type": "function"
    },
    {
      "inputs": [
        {
          "internalType": "address",
          "name": "from",
          "type": "address"
        },
        {
          "internalType": "address",
          "name": "to",
          "type": "address"
        },
        {
          "internalType": "uint256",
          "name": "tokenId",
          "type": "uint256"
        }
      ],
      "name": "safeTransferFrom",
      "outputs": [],
      "stateMutability": "nonpayable",
      "type": "function"
    },
    {
      "inputs": [
        {
          "internalType": "address",
          "name": "from",
          "type": "address"
        },
        {
          "internalType": "address",
          "name": "to",
          "type": "address"
        },
        {
          "internalType": "uint256",
          "name": "tokenId",
          "type": "uint256"
        },
        {
          "internalType": "bytes",
          "name": "_data",
          "type": "bytes"
        }
      ],
      "name": "safeTransferFrom",
      "outputs": [],
      "stateMutability": "nonpayable",
      "type": "function"
    },
    {
      "inputs": [
        {
          "internalType": "address",
          "name": "operator",
          "type": "address"
        },
        {
          "internalType": "bool",
          "name": "approved",
          "type": "bool"
        }
      ],
      "name": "setApprovalForAll",
      "outputs": [],
      "stateMutability": "nonpayable",
      "type": "function"
    },
    {
      "inputs": [
        {
          "internalType": "bytes4",
          "name": "interfaceId",
          "type": "bytes4"
        }
      ],
      "name": "supportsInterface",
      "outputs": [
        {
          "internalType": "bool",
          "name": "",
          "type": "bool"
        }
      ],
      "stateMutability": "view",
      "type": "function"
    },
    {
      "inputs": [],
      "name": "symbol",
      "outputs": [
        {
          "internalType": "string",
          "name": "",
          "type": "string"
        }
      ],
      "stateMutability": "view",
      "type": "function"
    },
    {
      "inputs": [
        {
          "internalType": "uint256",
          "name": "tokenId",
          "type": "uint256"
        }
      ],
      "name": "tokenURI",
      "outputs": [
        {
          "internalType": "string",
          "name": "",
          "type": "string"
        }
      ],
      "stateMutability": "view",
      "type": "function"
    },
    {
      "inputs": [
        {
          "internalType": "address",
          "name": "from",
          "type": "address"
        },
        {
          "internalType": "address",
          "name": "to",
          "type": "address"
        },
        {
          "internalType": "uint256",
          "name": "tokenId",
          "type": "uint256"
        }
      ],
      "name": "transferFrom",
      "outputs": [],
      "stateMutability": "nonpayable",
      "type": "function"
    },
    {
      "inputs": [
        {
          "internalType": "string",
          "name": "tokenURI",
          "type": "string"
        }
      ],
      "name": "mintNFT",
      "outputs": [
        {
          "internalType": "uint256",
          "name": "",
          "type": "uint256"
        }
      ],
      "stateMutability": "nonpayable",
      "type": "function"
    },
    {
      "inputs": [],
      "name": "getCollectionURI",
      "outputs": [
        {
          "internalType": "string",
          "name": "",
          "type": "string"
        }
      ],
      "stateMutability": "view",
      "type": "function"
    },
    {
      "inputs": [
        {
          "internalType": "uint256",
          "name": "tokenId",
          "type": "uint256"
        }
      ],
      "name": "burn",
      "outputs": [
        {
          "internalType": "bool",
          "name": "",
          "type": "bool"
        }
      ],
      "stateMutability": "nonpayable",
      "type": "function"
    },
    {
      "inputs": [
        {
          "internalType": "uint256",
          "name": "tokenId",
          "type": "uint256"
        },
        {
          "internalType": "uint256",
          "name": "price",
          "type": "uint256"
        }
      ],
      "name": "sell",
      "outputs": [
        {
          "internalType": "address",
          "name": "",
          "type": "address"
        }
      ],
      "stateMutability": "nonpayable",
      "type": "function"
    },
    {
      "inputs": [
        {
          "internalType": "uint256",
          "name": "tokenId",
          "type": "uint256"
        },
        {
          "internalType": "address",
          "name": "contractAddr",
          "type": "address"
        }
      ],
      "name": "cancel",
      "outputs": [
        {
          "internalType": "bool",
          "name": "",
          "type": "bool"
        }
      ],
      "stateMutability": "nonpayable",
      "type": "function"
    },
    {
      "inputs": [
        {
          "internalType": "uint256",
          "name": "tokenId",
          "type": "uint256"
        }
      ],
      "name": "getIsSelling",
      "outputs": [
        {
          "internalType": "bool",
          "name": "",
          "type": "bool"
        }
      ],
      "stateMutability": "view",
      "type": "function"
    }
  ],
  "bytecode": "0x60806040523480156200001157600080fd5b506040516200551638038062005516833981810160405281019062000037919062000464565b828281600090805190602001906200005192919062000217565b5080600190805190602001906200006a92919062000217565b5050506200007e33620000a060201b60201c565b80600b90805190602001906200009692919062000217565b505050506200062b565b600073ffffffffffffffffffffffffffffffffffffffff168173ffffffffffffffffffffffffffffffffffffffff16141562000113576040517f08c379a00000000000000000000000000000000000000000000000000000000081526004016200010a90620005a4565b60405180910390fd5b6001600760008373ffffffffffffffffffffffffffffffffffffffff1673ffffffffffffffffffffffffffffffffffffffff16815260200190815260200160002060006101000a81548160ff021916908315150217905550600080620001886008546001620001e660201b620015311760201c565b91509150816200019757600080fd5b806008819055508273ffffffffffffffffffffffffffffffffffffffff167fb90b02ac97b4171849ecadebe8c5fb4ae057263e6c99b7b2d7549fd4224b190f60405160405180910390a2505050565b60008060008385019050848110156200020757600080925092505062000210565b60018192509250505b9250929050565b8280546200022590620005f5565b90600052602060002090601f01602090048101928262000249576000855562000295565b82601f106200026457805160ff191683800117855562000295565b8280016001018555821562000295579182015b828111156200029457825182559160200191906001019062000277565b5b509050620002a49190620002a8565b5090565b5b80821115620002c3576000816000905550600101620002a9565b5090565b6000604051905090565b600080fd5b600080fd5b600080fd5b600080fd5b6000601f19601f8301169050919050565b7f4e487b7100000000000000000000000000000000000000000000000000000000600052604160045260246000fd5b6200033082620002e5565b810181811067ffffffffffffffff82111715620003525762000351620002f6565b5b80604052505050565b600062000367620002c7565b905062000375828262000325565b919050565b600067ffffffffffffffff821115620003985762000397620002f6565b5b620003a382620002e5565b9050602081019050919050565b60005b83811015620003d0578082015181840152602081019050620003b3565b83811115620003e0576000848401525b50505050565b6000620003fd620003f7846200037a565b6200035b565b9050828152602081018484840111156200041c576200041b620002e0565b5b62000429848285620003b0565b509392505050565b600082601f830112620004495762000448620002db565b5b81516200045b848260208601620003e6565b91505092915050565b60008060006060848603121562000480576200047f620002d1565b5b600084015167ffffffffffffffff811115620004a157620004a0620002d6565b5b620004af8682870162000431565b935050602084015167ffffffffffffffff811115620004d357620004d2620002d6565b5b620004e18682870162000431565b925050604084015167ffffffffffffffff811115620005055762000504620002d6565b5b620005138682870162000431565b9150509250925092565b600082825260208201905092915050565b7f4f776e61626c653a206e6577206f776e657220697320746865207a65726f206160008201527f6464726573730000000000000000000000000000000000000000000000000000602082015250565b60006200058c6026836200051d565b915062000599826200052e565b604082019050919050565b60006020820190508181036000830152620005bf816200057d565b9050919050565b7f4e487b7100000000000000000000000000000000000000000000000000000000600052602260045260246000fd5b600060028204905060018216806200060e57607f821691505b60208210811415620006255762000624620005c6565b5b50919050565b614edb806200063b6000396000f3fe60806040523480156200001157600080fd5b50600436106200016c5760003560e01c806370a0823111620000d5578063cfb5bb1f1162000087578063cfb5bb1f146200045d578063d79875eb146200047f578063e985e9c514620004b5578063f1d3fd5814620004eb578063f5a55ff6146200050b578063fb37e883146200052b576200016c565b806370a08231146200036d578063775a25e314620003a357806395d89b4114620003c5578063a22cb46514620003e7578063b88d4fde1462000407578063c87b56dd1462000427576200016c565b806323b872dd116200012f57806323b872dd14620002555780632f54bf6e146200027557806342842e0e14620002ab57806342966c6814620002cb57806357d682c414620003015780636352211e1462000337576200016c565b806301ffc9a7146200017157806306fdde0314620001a7578063081812fc14620001c9578063095ea7b314620001ff578063189fd00f146200021f575b600080fd5b6200018f60048036038101906200018991906200281e565b62000561565b6040516200019e91906200286d565b60405180910390f35b620001b162000647565b604051620001c091906200292e565b60405180910390f35b620001e76004803603810190620001e191906200298d565b620006e1565b604051620001f6919062002a04565b60405180910390f35b6200021d600480360381019062000217919062002a52565b6200076b565b005b6200023d60048036038101906200023791906200298d565b62000894565b6040516200024c91906200286d565b60405180910390f35b6200027360048036038101906200026d919062002a99565b620008be565b005b6200029360048036038101906200028d919062002af5565b62000927565b604051620002a291906200286d565b60405180910390f35b620002c96004803603810190620002c3919062002a99565b6200097d565b005b620002e96004803603810190620002e391906200298d565b6200099f565b604051620002f891906200286d565b60405180910390f35b6200031f600480360381019062000319919062002b27565b62000ab6565b6040516200032e91906200286d565b60405180910390f35b6200035560048036038101906200034f91906200298d565b62000c1f565b60405162000364919062002a04565b60405180910390f35b6200038b600480360381019062000385919062002af5565b62000cd4565b6040516200039a919062002b7f565b60405180910390f35b620003ad62000d8f565b604051620003bc919062002b7f565b60405180910390f35b620003cf62000d99565b604051620003de91906200292e565b60405180910390f35b620004056004803603810190620003ff919062002bcd565b62000e33565b005b6200042560048036038101906200041f919062002d65565b62000e4d565b005b6200044560048036038101906200043f91906200298d565b62000eb8565b6040516200045491906200292e565b60405180910390f35b6200046762001021565b6040516200047691906200292e565b60405180910390f35b6200049d600480360381019062000497919062002df6565b620010bb565b604051620004ac919062002a04565b60405180910390f35b620004d36004803603810190620004cd919062002e3d565b62001275565b604051620004e291906200286d565b60405180910390f35b62000509600480360381019062000503919062002af5565b62001309565b005b62000529600480360381019062000523919062002af5565b620013d7565b005b62000549600480360381019062000543919062002f38565b620014a5565b60405162000558919062002b7f565b60405180910390f35b60007f80ac58cd000000000000000000000000000000000000000000000000000000007bffffffffffffffffffffffffffffffffffffffffffffffffffffffff1916827bffffffffffffffffffffffffffffffffffffffffffffffffffffffff191614806200062d57507f5b5e139f000000000000000000000000000000000000000000000000000000007bffffffffffffffffffffffffffffffffffffffffffffffffffffffff1916827bffffffffffffffffffffffffffffffffffffffffffffffffffffffff1916145b806200064057506200063f8262001562565b5b9050919050565b606060008054620006589062002fb8565b80601f0160208091040260200160405190810160405280929190818152602001828054620006869062002fb8565b8015620006d75780601f10620006ab57610100808354040283529160200191620006d7565b820191906000526020600020905b815481529060010190602001808311620006b957829003601f168201915b5050505050905090565b6000620006ee82620015cc565b62000730576040517f08c379a0000000000000000000000000000000000000000000000000000000008152600401620007279062003064565b60405180910390fd5b6004600083815260200190815260200160002060009054906101000a900473ffffffffffffffffffffffffffffffffffffffff169050919050565b6000620007788262000c1f565b90508073ffffffffffffffffffffffffffffffffffffffff168373ffffffffffffffffffffffffffffffffffffffff161415620007ec576040517f08c379a0000000000000000000000000000000000000000000000000000000008152600401620007e390620030fc565b60405180910390fd5b8073ffffffffffffffffffffffffffffffffffffffff166200080d62001638565b73ffffffffffffffffffffffffffffffffffffffff16148062000841575062000840816200083a62001638565b62001275565b5b62000883576040517f08c379a00000000000000000000000000000000000000000000000000000000081526004016200087a9062003194565b60405180910390fd5b6200088f838362001640565b505050565b6000600a600083815260200190815260200160002060009054906101000a900460ff169050919050565b620008d3620008cc62001638565b82620016fb565b62000915576040517f08c379a00000000000000000000000000000000000000000000000000000000081526004016200090c906200322c565b60405180910390fd5b62000922838383620017e6565b505050565b6000600760008373ffffffffffffffffffffffffffffffffffffffff1673ffffffffffffffffffffffffffffffffffffffff16815260200190815260200160002060009054906101000a900460ff169050919050565b6200099a8383836040518060200160405280600081525062000e4d565b505050565b6000620009ac3362000927565b620009ee576040517f08c379a0000000000000000000000000000000000000000000000000000000008152600401620009e5906200329e565b60405180910390fd5b620009f98262000c1f565b73ffffffffffffffffffffffffffffffffffffffff163373ffffffffffffffffffffffffffffffffffffffff161462000a69576040517f08c379a000000000000000000000000000000000000000000000000000000000815260040162000a609062003336565b60405180910390fd5b62000a748262001a52565b7f3d5efefeb27d62f4af8ec335418b9b69ab94554a5052b7b26df1ef52888383c78260405162000aa5919062002b7f565b60405180910390a160019050919050565b600062000ac38362000c1f565b73ffffffffffffffffffffffffffffffffffffffff163373ffffffffffffffffffffffffffffffffffffffff161462000b33576040517f08c379a000000000000000000000000000000000000000000000000000000000815260040162000b2a9062003336565b60405180910390fd5b600a600084815260200190815260200160002060009054906101000a900460ff161562000b97576040517f08c379a000000000000000000000000000000000000000000000000000000000815260040162000b8e90620033ce565b60405180910390fd5b6000600a600085815260200190815260200160002060006101000a81548160ff0219169083151502179055508173ffffffffffffffffffffffffffffffffffffffff167fe8e39dfc0ee6cb8018fcf6bce20b90718d20d3a21acf097281177099c76588eb308560405162000c0d929190620033f0565b60405180910390a26001905092915050565b6000806002600084815260200190815260200160002060009054906101000a900473ffffffffffffffffffffffffffffffffffffffff169050600073ffffffffffffffffffffffffffffffffffffffff168173ffffffffffffffffffffffffffffffffffffffff16141562000ccb576040517f08c379a000000000000000000000000000000000000000000000000000000000815260040162000cc29062003493565b60405180910390fd5b80915050919050565b60008073ffffffffffffffffffffffffffffffffffffffff168273ffffffffffffffffffffffffffffffffffffffff16141562000d48576040517f08c379a000000000000000000000000000000000000000000000000000000000815260040162000d3f906200352b565b60405180910390fd5b600360008373ffffffffffffffffffffffffffffffffffffffff1673ffffffffffffffffffffffffffffffffffffffff168152602001908152602001600020549050919050565b6000600854905090565b60606001805462000daa9062002fb8565b80601f016020809104026020016040519081016040528092919081815260200182805462000dd89062002fb8565b801562000e295780601f1062000dfd5761010080835404028352916020019162000e29565b820191906000526020600020905b81548152906001019060200180831162000e0b57829003601f168201915b5050505050905090565b62000e4962000e4162001638565b838362001aac565b5050565b62000e6262000e5b62001638565b83620016fb565b62000ea4576040517f08c379a000000000000000000000000000000000000000000000000000000000815260040162000e9b906200322c565b60405180910390fd5b62000eb28484848462001c1e565b50505050565b606062000ec582620015cc565b62000f07576040517f08c379a000000000000000000000000000000000000000000000000000000000815260040162000efe90620035c3565b60405180910390fd5b600060066000848152602001908152602001600020805462000f299062002fb8565b80601f016020809104026020016040519081016040528092919081815260200182805462000f579062002fb8565b801562000fa85780601f1062000f7c5761010080835404028352916020019162000fa8565b820191906000526020600020905b81548152906001019060200180831162000f8a57829003601f168201915b50505050509050600062000fbb62001c81565b905060008151141562000fd35781925050506200101c565b6000825111156200100c57808260405160200162000ff392919062003627565b604051602081830303815290604052925050506200101c565b620010178462001c98565b925050505b919050565b6060600b8054620010329062002fb8565b80601f0160208091040260200160405190810160405280929190818152602001828054620010609062002fb8565b8015620010b15780601f106200108557610100808354040283529160200191620010b1565b820191906000526020600020905b8154815290600101906020018083116200109357829003601f168201915b5050505050905090565b6000620010c88362000c1f565b73ffffffffffffffffffffffffffffffffffffffff163373ffffffffffffffffffffffffffffffffffffffff161462001138576040517f08c379a00000000000000000000000000000000000000000000000000000000081526004016200112f9062003336565b60405180910390fd5b600a600084815260200190815260200160002060009054906101000a900460ff16156200119c576040517f08c379a00000000000000000000000000000000000000000000000000000000081526004016200119390620033ce565b60405180910390fd5b6001600a600085815260200190815260200160002060006101000a81548160ff021916908315150217905550600033308585604051620011dc90620026a9565b620011eb94939291906200364f565b604051809103906000f08015801562001208573d6000803e3d6000fd5b50905062001217818562001640565b8073ffffffffffffffffffffffffffffffffffffffff167fbad6b8327cfd7bc20bf3d4db5a2bdfcb50d810fabf1d9910d13aa59ec5522c6330868660405162001263939291906200369c565b60405180910390a28091505092915050565b6000600560008473ffffffffffffffffffffffffffffffffffffffff1673ffffffffffffffffffffffffffffffffffffffff16815260200190815260200160002060008373ffffffffffffffffffffffffffffffffffffffff1673ffffffffffffffffffffffffffffffffffffffff16815260200190815260200160002060009054906101000a900460ff16905092915050565b620013143362000927565b62001356576040517f08c379a00000000000000000000000000000000000000000000000000000000081526004016200134d906200329e565b60405180910390fd5b600073ffffffffffffffffffffffffffffffffffffffff168173ffffffffffffffffffffffffffffffffffffffff161415620013c9576040517f08c379a0000000000000000000000000000000000000000000000000000000008152600401620013c0906200374f565b60405180910390fd5b620013d48162001d4c565b50565b620013e23362000927565b62001424576040517f08c379a00000000000000000000000000000000000000000000000000000000081526004016200141b906200329e565b60405180910390fd5b600073ffffffffffffffffffffffffffffffffffffffff168173ffffffffffffffffffffffffffffffffffffffff16141562001497576040517f08c379a00000000000000000000000000000000000000000000000000000000081526004016200148e90620037e7565b60405180910390fd5b620014a28162001e87565b50565b6000620014b23362000927565b620014f4576040517f08c379a0000000000000000000000000000000000000000000000000000000008152600401620014eb906200329e565b60405180910390fd5b62001500600962001fc2565b60006200150e600962001fd8565b90506200151c338262001fe6565b620015288184620021c0565b80915050919050565b6000806000838501905084811015620015525760008092509250506200155b565b60018192509250505b9250929050565b60007f01ffc9a7000000000000000000000000000000000000000000000000000000007bffffffffffffffffffffffffffffffffffffffffffffffffffffffff1916827bffffffffffffffffffffffffffffffffffffffffffffffffffffffff1916149050919050565b60008073ffffffffffffffffffffffffffffffffffffffff166002600084815260200190815260200160002060009054906101000a900473ffffffffffffffffffffffffffffffffffffffff1673ffffffffffffffffffffffffffffffffffffffff1614159050919050565b600033905090565b816004600083815260200190815260200160002060006101000a81548173ffffffffffffffffffffffffffffffffffffffff021916908373ffffffffffffffffffffffffffffffffffffffff160217905550808273ffffffffffffffffffffffffffffffffffffffff16620016b58362000c1f565b73ffffffffffffffffffffffffffffffffffffffff167f8c5be1e5ebec7d5bd14f71427d1e84f3dd0314c0f7b2291e5b200ac8c7c3b92560405160405180910390a45050565b60006200170882620015cc565b6200174a576040517f08c379a000000000000000000000000000000000000000000000000000000000815260040162001741906200387f565b60405180910390fd5b6000620017578362000c1f565b90508073ffffffffffffffffffffffffffffffffffffffff168473ffffffffffffffffffffffffffffffffffffffff161480620017c957508373ffffffffffffffffffffffffffffffffffffffff16620017b184620006e1565b73ffffffffffffffffffffffffffffffffffffffff16145b80620017dd5750620017dc818562001275565b5b91505092915050565b8273ffffffffffffffffffffffffffffffffffffffff16620018088262000c1f565b73ffffffffffffffffffffffffffffffffffffffff161462001861576040517f08c379a0000000000000000000000000000000000000000000000000000000008152600401620018589062003917565b60405180910390fd5b600073ffffffffffffffffffffffffffffffffffffffff168273ffffffffffffffffffffffffffffffffffffffff161415620018d4576040517f08c379a0000000000000000000000000000000000000000000000000000000008152600401620018cb90620039af565b60405180910390fd5b620018e18383836200223b565b620018ee60008262001640565b6001600360008573ffffffffffffffffffffffffffffffffffffffff1673ffffffffffffffffffffffffffffffffffffffff168152602001908152602001600020600082825462001940919062003a00565b925050819055506001600360008473ffffffffffffffffffffffffffffffffffffffff1673ffffffffffffffffffffffffffffffffffffffff168152602001908152602001600020600082825462001999919062003a3b565b92505081905550816002600083815260200190815260200160002060006101000a81548173ffffffffffffffffffffffffffffffffffffffff021916908373ffffffffffffffffffffffffffffffffffffffff160217905550808273ffffffffffffffffffffffffffffffffffffffff168473ffffffffffffffffffffffffffffffffffffffff167fddf252ad1be2c89b69c2b068fc378daa952ba7f163c4a11628f55a4df523b3ef60405160405180910390a4505050565b62001a5d8162002240565b600060066000838152602001908152602001600020805462001a7f9062002fb8565b90501462001aa95760066000828152602001908152602001600020600062001aa89190620026b7565b5b50565b8173ffffffffffffffffffffffffffffffffffffffff168373ffffffffffffffffffffffffffffffffffffffff16141562001b1e576040517f08c379a000000000000000000000000000000000000000000000000000000000815260040162001b159062003ae8565b60405180910390fd5b80600560008573ffffffffffffffffffffffffffffffffffffffff1673ffffffffffffffffffffffffffffffffffffffff16815260200190815260200160002060008473ffffffffffffffffffffffffffffffffffffffff1673ffffffffffffffffffffffffffffffffffffffff16815260200190815260200160002060006101000a81548160ff0219169083151502179055508173ffffffffffffffffffffffffffffffffffffffff168373ffffffffffffffffffffffffffffffffffffffff167f17307eab39ab6107e8899845ad3d59bd9653f200f220920489ca2b5937696c318360405162001c1191906200286d565b60405180910390a3505050565b62001c2b848484620017e6565b62001c398484848462002359565b62001c7b576040517f08c379a000000000000000000000000000000000000000000000000000000000815260040162001c729062003b80565b60405180910390fd5b50505050565b606060405180602001604052806000815250905090565b606062001ca582620015cc565b62001ce7576040517f08c379a000000000000000000000000000000000000000000000000000000000815260040162001cde9062003c18565b60405180910390fd5b600062001cf362001c81565b9050600081511162001d15576040518060200160405280600081525062001d44565b8062001d2184620024f2565b60405160200162001d3492919062003627565b6040516020818303038152906040525b915050919050565b600073ffffffffffffffffffffffffffffffffffffffff168173ffffffffffffffffffffffffffffffffffffffff16141562001dbf576040517f08c379a000000000000000000000000000000000000000000000000000000000815260040162001db6906200374f565b60405180910390fd5b6000600760008373ffffffffffffffffffffffffffffffffffffffff1673ffffffffffffffffffffffffffffffffffffffff16815260200190815260200160002060006101000a81548160ff02191690831515021790555060008062001e2960085460016200266c565b915091508162001e3857600080fd5b806008819055508273ffffffffffffffffffffffffffffffffffffffff167f5a802ddc2203595e87472e6c5f4984bc7b34bde75123d93398a6b892e2305c1960405160405180910390a2505050565b600073ffffffffffffffffffffffffffffffffffffffff168173ffffffffffffffffffffffffffffffffffffffff16141562001efa576040517f08c379a000000000000000000000000000000000000000000000000000000000815260040162001ef190620037e7565b60405180910390fd5b6001600760008373ffffffffffffffffffffffffffffffffffffffff1673ffffffffffffffffffffffffffffffffffffffff16815260200190815260200160002060006101000a81548160ff02191690831515021790555060008062001f64600854600162001531565b915091508162001f7357600080fd5b806008819055508273ffffffffffffffffffffffffffffffffffffffff167fb90b02ac97b4171849ecadebe8c5fb4ae057263e6c99b7b2d7549fd4224b190f60405160405180910390a2505050565b6001816000016000828254019250508190555050565b600081600001549050919050565b600073ffffffffffffffffffffffffffffffffffffffff168273ffffffffffffffffffffffffffffffffffffffff16141562002059576040517f08c379a0000000000000000000000000000000000000000000000000000000008152600401620020509062003c8a565b60405180910390fd5b6200206481620015cc565b15620020a7576040517f08c379a00000000000000000000000000000000000000000000000000000000081526004016200209e9062003cfc565b60405180910390fd5b620020b5600083836200223b565b6001600360008473ffffffffffffffffffffffffffffffffffffffff1673ffffffffffffffffffffffffffffffffffffffff168152602001908152602001600020600082825462002107919062003a3b565b92505081905550816002600083815260200190815260200160002060006101000a81548173ffffffffffffffffffffffffffffffffffffffff021916908373ffffffffffffffffffffffffffffffffffffffff160217905550808273ffffffffffffffffffffffffffffffffffffffff16600073ffffffffffffffffffffffffffffffffffffffff167fddf252ad1be2c89b69c2b068fc378daa952ba7f163c4a11628f55a4df523b3ef60405160405180910390a45050565b620021cb82620015cc565b6200220d576040517f08c379a0000000000000000000000000000000000000000000000000000000008152600401620022049062003d94565b60405180910390fd5b8060066000848152602001908152602001600020908051906020019062002236929190620026fd565b505050565b505050565b60006200224d8262000c1f565b90506200225d816000846200223b565b6200226a60008362001640565b6001600360008373ffffffffffffffffffffffffffffffffffffffff1673ffffffffffffffffffffffffffffffffffffffff1681526020019081526020016000206000828254620022bc919062003a00565b925050819055506002600083815260200190815260200160002060006101000a81549073ffffffffffffffffffffffffffffffffffffffff021916905581600073ffffffffffffffffffffffffffffffffffffffff168273ffffffffffffffffffffffffffffffffffffffff167fddf252ad1be2c89b69c2b068fc378daa952ba7f163c4a11628f55a4df523b3ef60405160405180910390a45050565b60006200237c8473ffffffffffffffffffffffffffffffffffffffff1662002696565b15620024e5578373ffffffffffffffffffffffffffffffffffffffff1663150b7a02620023a862001638565b8786866040518563ffffffff1660e01b8152600401620023cc949392919062003e13565b6020604051808303816000875af19250505080156200240b57506040513d601f19601f8201168201806040525081019062002408919062003e7e565b60015b62002494573d80600081146200243e576040519150601f19603f3d011682016040523d82523d6000602084013e62002443565b606091505b506000815114156200248c576040517f08c379a0000000000000000000000000000000000000000000000000000000008152600401620024839062003b80565b60405180910390fd5b805181602001fd5b63150b7a0260e01b7bffffffffffffffffffffffffffffffffffffffffffffffffffffffff1916817bffffffffffffffffffffffffffffffffffffffffffffffffffffffff191614915050620024ea565b600190505b949350505050565b606060008214156200253c576040518060400160405280600181526020017f3000000000000000000000000000000000000000000000000000000000000000815250905062002667565b600082905060005b60008214620025745780806200255a9062003eb0565b915050600a826200256c919062003f2d565b915062002544565b60008167ffffffffffffffff81111562002593576200259262002c1e565b5b6040519080825280601f01601f191660200182016040528015620025c65781602001600182028036833780820191505090505b5090505b600085146200266057600182620025e2919062003a00565b9150600a85620025f3919062003f65565b603062002601919062003a3b565b60f81b8183815181106200261a576200261962003f9d565b5b60200101907effffffffffffffffffffffffffffffffffffffffffffffffffffffffffffff1916908160001a905350600a8562002658919062003f2d565b9450620025ca565b8093505050505b919050565b600080838311156200268557600080915091506200268f565b6001838503915091505b9250929050565b600080823b905060008111915050919050565b610ed98062003fcd83390190565b508054620026c59062002fb8565b6000825580601f10620026d95750620026fa565b601f016020900490600052602060002090810190620026f991906200278e565b5b50565b8280546200270b9062002fb8565b90600052602060002090601f0160209004810192826200272f57600085556200277b565b82601f106200274a57805160ff19168380011785556200277b565b828001600101855582156200277b579182015b828111156200277a5782518255916020019190600101906200275d565b5b5090506200278a91906200278e565b5090565b5b80821115620027a95760008160009055506001016200278f565b5090565b6000604051905090565b600080fd5b600080fd5b60007fffffffff0000000000000000000000000000000000000000000000000000000082169050919050565b620027f881620027c1565b81146200280457600080fd5b50565b6000813590506200281881620027ed565b92915050565b600060208284031215620028375762002836620027b7565b5b6000620028478482850162002807565b91505092915050565b60008115159050919050565b620028678162002850565b82525050565b60006020820190506200288460008301846200285c565b92915050565b600081519050919050565b600082825260208201905092915050565b60005b83811015620028c6578082015181840152602081019050620028a9565b83811115620028d6576000848401525b50505050565b6000601f19601f8301169050919050565b6000620028fa826200288a565b62002906818562002895565b935062002918818560208601620028a6565b6200292381620028dc565b840191505092915050565b600060208201905081810360008301526200294a8184620028ed565b905092915050565b6000819050919050565b620029678162002952565b81146200297357600080fd5b50565b60008135905062002987816200295c565b92915050565b600060208284031215620029a657620029a5620027b7565b5b6000620029b68482850162002976565b91505092915050565b600073ffffffffffffffffffffffffffffffffffffffff82169050919050565b6000620029ec82620029bf565b9050919050565b620029fe81620029df565b82525050565b600060208201905062002a1b6000830184620029f3565b92915050565b62002a2c81620029df565b811462002a3857600080fd5b50565b60008135905062002a4c8162002a21565b92915050565b6000806040838503121562002a6c5762002a6b620027b7565b5b600062002a7c8582860162002a3b565b925050602062002a8f8582860162002976565b9150509250929050565b60008060006060848603121562002ab55762002ab4620027b7565b5b600062002ac58682870162002a3b565b935050602062002ad88682870162002a3b565b925050604062002aeb8682870162002976565b9150509250925092565b60006020828403121562002b0e5762002b0d620027b7565b5b600062002b1e8482850162002a3b565b91505092915050565b6000806040838503121562002b415762002b40620027b7565b5b600062002b518582860162002976565b925050602062002b648582860162002a3b565b9150509250929050565b62002b798162002952565b82525050565b600060208201905062002b96600083018462002b6e565b92915050565b62002ba78162002850565b811462002bb357600080fd5b50565b60008135905062002bc78162002b9c565b92915050565b6000806040838503121562002be75762002be6620027b7565b5b600062002bf78582860162002a3b565b925050602062002c0a8582860162002bb6565b9150509250929050565b600080fd5b600080fd5b7f4e487b7100000000000000000000000000000000000000000000000000000000600052604160045260246000fd5b62002c5882620028dc565b810181811067ffffffffffffffff8211171562002c7a5762002c7962002c1e565b5b80604052505050565b600062002c8f620027ad565b905062002c9d828262002c4d565b919050565b600067ffffffffffffffff82111562002cc05762002cbf62002c1e565b5b62002ccb82620028dc565b9050602081019050919050565b82818337600083830152505050565b600062002cfe62002cf88462002ca2565b62002c83565b90508281526020810184848401111562002d1d5762002d1c62002c19565b5b62002d2a84828562002cd8565b509392505050565b600082601f83011262002d4a5762002d4962002c14565b5b813562002d5c84826020860162002ce7565b91505092915050565b6000806000806080858703121562002d825762002d81620027b7565b5b600062002d928782880162002a3b565b945050602062002da58782880162002a3b565b935050604062002db88782880162002976565b925050606085013567ffffffffffffffff81111562002ddc5762002ddb620027bc565b5b62002dea8782880162002d32565b91505092959194509250565b6000806040838503121562002e105762002e0f620027b7565b5b600062002e208582860162002976565b925050602062002e338582860162002976565b9150509250929050565b6000806040838503121562002e575762002e56620027b7565b5b600062002e678582860162002a3b565b925050602062002e7a8582860162002a3b565b9150509250929050565b600067ffffffffffffffff82111562002ea25762002ea162002c1e565b5b62002ead82620028dc565b9050602081019050919050565b600062002ed162002ecb8462002e84565b62002c83565b90508281526020810184848401111562002ef05762002eef62002c19565b5b62002efd84828562002cd8565b509392505050565b600082601f83011262002f1d5762002f1c62002c14565b5b813562002f2f84826020860162002eba565b91505092915050565b60006020828403121562002f515762002f50620027b7565b5b600082013567ffffffffffffffff81111562002f725762002f71620027bc565b5b62002f808482850162002f05565b91505092915050565b7f4e487b7100000000000000000000000000000000000000000000000000000000600052602260045260246000fd5b6000600282049050600182168062002fd157607f821691505b6020821081141562002fe85762002fe762002f89565b5b50919050565b7f4552433732313a20617070726f76656420717565727920666f72206e6f6e657860008201527f697374656e7420746f6b656e0000000000000000000000000000000000000000602082015250565b60006200304c602c8362002895565b9150620030598262002fee565b604082019050919050565b600060208201905081810360008301526200307f816200303d565b9050919050565b7f4552433732313a20617070726f76616c20746f2063757272656e74206f776e6560008201527f7200000000000000000000000000000000000000000000000000000000000000602082015250565b6000620030e460218362002895565b9150620030f18262003086565b604082019050919050565b600060208201905081810360008301526200311781620030d5565b9050919050565b7f4552433732313a20617070726f76652063616c6c6572206973206e6f74206f7760008201527f6e6572206e6f7220617070726f76656420666f7220616c6c0000000000000000602082015250565b60006200317c60388362002895565b915062003189826200311e565b604082019050919050565b60006020820190508181036000830152620031af816200316d565b9050919050565b7f4552433732313a207472616e736665722063616c6c6572206973206e6f74206f60008201527f776e6572206e6f7220617070726f766564000000000000000000000000000000602082015250565b60006200321460318362002895565b91506200322182620031b6565b604082019050919050565b60006020820190508181036000830152620032478162003205565b9050919050565b7f4f776e61626c653a2063616c6c6572206973206e6f7420746865206f776e6572600082015250565b60006200328660208362002895565b915062003293826200324e565b602082019050919050565b60006020820190508181036000830152620032b98162003277565b9050919050565b7f436f6c6c656374696f6e3a20546869732061646472657373206973206e6f742060008201527f6f776e6572000000000000000000000000000000000000000000000000000000602082015250565b60006200331e60258362002895565b91506200332b82620032c0565b604082019050919050565b6000602082019050818103600083015262003351816200330f565b9050919050565b7f436f6c6c656374696f6e3a2043616e206e6f742073656c6c2074686973204e4660008201527f5400000000000000000000000000000000000000000000000000000000000000602082015250565b6000620033b660218362002895565b9150620033c38262003358565b604082019050919050565b60006020820190508181036000830152620033e981620033a7565b9050919050565b6000604082019050620034076000830185620029f3565b62003416602083018462002b6e565b9392505050565b7f4552433732313a206f776e657220717565727920666f72206e6f6e657869737460008201527f656e7420746f6b656e0000000000000000000000000000000000000000000000602082015250565b60006200347b60298362002895565b915062003488826200341d565b604082019050919050565b60006020820190508181036000830152620034ae816200346c565b9050919050565b7f4552433732313a2062616c616e636520717565727920666f7220746865207a6560008201527f726f206164647265737300000000000000000000000000000000000000000000602082015250565b600062003513602a8362002895565b91506200352082620034b5565b604082019050919050565b60006020820190508181036000830152620035468162003504565b9050919050565b7f45524337323155524953746f726167653a2055524920717565727920666f722060008201527f6e6f6e6578697374656e7420746f6b656e000000000000000000000000000000602082015250565b6000620035ab60318362002895565b9150620035b8826200354d565b604082019050919050565b60006020820190508181036000830152620035de816200359c565b9050919050565b600081905092915050565b6000620035fd826200288a565b620036098185620035e5565b93506200361b818560208601620028a6565b80840191505092915050565b6000620036358285620035f0565b9150620036438284620035f0565b91508190509392505050565b6000608082019050620036666000830187620029f3565b620036756020830186620029f3565b62003684604083018562002b6e565b62003693606083018462002b6e565b95945050505050565b6000606082019050620036b36000830186620029f3565b620036c2602083018562002b6e565b620036d1604083018462002b6e565b949350505050565b7f4f776e61626c653a206f776e657220697320746865207a65726f20616464726560008201527f7373000000000000000000000000000000000000000000000000000000000000602082015250565b60006200373760228362002895565b91506200374482620036d9565b604082019050919050565b600060208201905081810360008301526200376a8162003728565b9050919050565b7f4f776e61626c653a206e6577206f776e657220697320746865207a65726f206160008201527f6464726573730000000000000000000000000000000000000000000000000000602082015250565b6000620037cf60268362002895565b9150620037dc8262003771565b604082019050919050565b600060208201905081810360008301526200380281620037c0565b9050919050565b7f4552433732313a206f70657261746f7220717565727920666f72206e6f6e657860008201527f697374656e7420746f6b656e0000000000000000000000000000000000000000602082015250565b600062003867602c8362002895565b9150620038748262003809565b604082019050919050565b600060208201905081810360008301526200389a8162003858565b9050919050565b7f4552433732313a207472616e73666572206f6620746f6b656e2074686174206960008201527f73206e6f74206f776e0000000000000000000000000000000000000000000000602082015250565b6000620038ff60298362002895565b91506200390c82620038a1565b604082019050919050565b600060208201905081810360008301526200393281620038f0565b9050919050565b7f4552433732313a207472616e7366657220746f20746865207a65726f2061646460008201527f7265737300000000000000000000000000000000000000000000000000000000602082015250565b60006200399760248362002895565b9150620039a48262003939565b604082019050919050565b60006020820190508181036000830152620039ca8162003988565b9050919050565b7f4e487b7100000000000000000000000000000000000000000000000000000000600052601160045260246000fd5b600062003a0d8262002952565b915062003a1a8362002952565b92508282101562003a305762003a2f620039d1565b5b828203905092915050565b600062003a488262002952565b915062003a558362002952565b9250827fffffffffffffffffffffffffffffffffffffffffffffffffffffffffffffffff0382111562003a8d5762003a8c620039d1565b5b828201905092915050565b7f4552433732313a20617070726f766520746f2063616c6c657200000000000000600082015250565b600062003ad060198362002895565b915062003add8262003a98565b602082019050919050565b6000602082019050818103600083015262003b038162003ac1565b9050919050565b7f4552433732313a207472616e7366657220746f206e6f6e20455243373231526560008201527f63656976657220696d706c656d656e7465720000000000000000000000000000602082015250565b600062003b6860328362002895565b915062003b758262003b0a565b604082019050919050565b6000602082019050818103600083015262003b9b8162003b59565b9050919050565b7f4552433732314d657461646174613a2055524920717565727920666f72206e6f60008201527f6e6578697374656e7420746f6b656e0000000000000000000000000000000000602082015250565b600062003c00602f8362002895565b915062003c0d8262003ba2565b604082019050919050565b6000602082019050818103600083015262003c338162003bf1565b9050919050565b7f4552433732313a206d696e7420746f20746865207a65726f2061646472657373600082015250565b600062003c7260208362002895565b915062003c7f8262003c3a565b602082019050919050565b6000602082019050818103600083015262003ca58162003c63565b9050919050565b7f4552433732313a20746f6b656e20616c7265616479206d696e74656400000000600082015250565b600062003ce4601c8362002895565b915062003cf18262003cac565b602082019050919050565b6000602082019050818103600083015262003d178162003cd5565b9050919050565b7f45524337323155524953746f726167653a2055524920736574206f66206e6f6e60008201527f6578697374656e7420746f6b656e000000000000000000000000000000000000602082015250565b600062003d7c602e8362002895565b915062003d898262003d1e565b604082019050919050565b6000602082019050818103600083015262003daf8162003d6d565b9050919050565b600081519050919050565b600082825260208201905092915050565b600062003ddf8262003db6565b62003deb818562003dc1565b935062003dfd818560208601620028a6565b62003e0881620028dc565b840191505092915050565b600060808201905062003e2a6000830187620029f3565b62003e396020830186620029f3565b62003e48604083018562002b6e565b818103606083015262003e5c818462003dd2565b905095945050505050565b60008151905062003e7881620027ed565b92915050565b60006020828403121562003e975762003e96620027b7565b5b600062003ea78482850162003e67565b91505092915050565b600062003ebd8262002952565b91507fffffffffffffffffffffffffffffffffffffffffffffffffffffffffffffffff82141562003ef35762003ef2620039d1565b5b600182019050919050565b7f4e487b7100000000000000000000000000000000000000000000000000000000600052601260045260246000fd5b600062003f3a8262002952565b915062003f478362002952565b92508262003f5a5762003f5962003efe565b5b828204905092915050565b600062003f728262002952565b915062003f7f8362002952565b92508262003f925762003f9162003efe565b5b828206905092915050565b7f4e487b7100000000000000000000000000000000000000000000000000000000600052603260045260246000fdfe608060405260405162000ed938038062000ed983398181016040528101906200002991906200019e565b83600160006101000a81548173ffffffffffffffffffffffffffffffffffffffff021916908373ffffffffffffffffffffffffffffffffffffffff16021790555082600260006101000a81548173ffffffffffffffffffffffffffffffffffffffff021916908373ffffffffffffffffffffffffffffffffffffffff16021790555081600381905550806004819055506001600660006101000a81548160ff0219169083151502179055506000600860006101000a81548160ff0219169083151502179055505050505062000210565b600080fd5b600073ffffffffffffffffffffffffffffffffffffffff82169050919050565b60006200012b82620000fe565b9050919050565b6200013d816200011e565b81146200014957600080fd5b50565b6000815190506200015d8162000132565b92915050565b6000819050919050565b620001788162000163565b81146200018457600080fd5b50565b60008151905062000198816200016d565b92915050565b60008060008060808587031215620001bb57620001ba620000f9565b5b6000620001cb878288016200014c565b9450506020620001de878288016200014c565b9350506040620001f18782880162000187565b9250506060620002048782880162000187565b91505092959194509250565b610cb980620002206000396000f3fe6080604052600436106100435760003560e01c806312065fe0146100f757806398d5fdca14610122578063ae13d8a01461014d578063ec44acf214610176576100f2565b366100f257600660009054906101000a900460ff16610097576040517f08c379a000000000000000000000000000000000000000000000000000000000815260040161008e9061076f565b60405180910390fd5b600860009054906101000a900460ff16156100e7576040517f08c379a00000000000000000000000000000000000000000000000000000000081526004016100de906107db565b60405180910390fd5b6100ef610194565b50005b600080fd5b34801561010357600080fd5b5061010c61053d565b6040516101199190610814565b60405180910390f35b34801561012e57600080fd5b50610137610596565b6040516101449190610814565b60405180910390f35b34801561015957600080fd5b50610174600480360381019061016f9190610892565b6105ef565b005b61017e610194565b60405161018b9190610958565b60405180910390f35b6060600660009054906101000a900460ff166101e5576040517f08c379a00000000000000000000000000000000000000000000000000000000081526004016101dc9061076f565b60405180910390fd5b600860009054906101000a900460ff1615610235576040517f08c379a000000000000000000000000000000000000000000000000000000000815260040161022c906107db565b60405180910390fd5b6001600860006101000a81548160ff0219169083151502179055503460075461025e91906109a9565b600781905550600454600754146102aa576040517f08c379a00000000000000000000000000000000000000000000000000000000081526004016102a190610a4b565b60405180910390fd5b6000600160009054906101000a900473ffffffffffffffffffffffffffffffffffffffff1673ffffffffffffffffffffffffffffffffffffffff166007546040516102f490610a9c565b60006040518083038185875af1925050503d8060008114610331576040519150601f19603f3d011682016040523d82523d6000602084013e610336565b606091505b505090508061037a576040517f08c379a000000000000000000000000000000000000000000000000000000000815260040161037190610afd565b60405180910390fd5b600080600260009054906101000a900473ffffffffffffffffffffffffffffffffffffffff1673ffffffffffffffffffffffffffffffffffffffff16600160009054906101000a900473ffffffffffffffffffffffffffffffffffffffff16336003546040516024016103ef93929190610b2c565b6040516020818303038152906040527f23b872dd000000000000000000000000000000000000000000000000000000007bffffffffffffffffffffffffffffffffffffffffffffffffffffffff19166020820180517bffffffffffffffffffffffffffffffffffffffffffffffffffffffff83818316178352505050506040516104799190610b94565b600060405180830381855af49150503d80600081146104b4576040519150601f19603f3d011682016040523d82523d6000602084013e6104b9565b606091505b5091509150816104fe576040517f08c379a00000000000000000000000000000000000000000000000000000000081526004016104f590610bf7565b60405180910390fd5b6000600660006101000a81548160ff0219169083151502179055506000600860006101000a81548160ff02191690831515021790555080935050505090565b6000600660009054906101000a900460ff1661058e576040517f08c379a00000000000000000000000000000000000000000000000000000000081526004016105859061076f565b60405180910390fd5b600754905090565b6000600660009054906101000a900460ff166105e7576040517f08c379a00000000000000000000000000000000000000000000000000000000081526004016105de9061076f565b60405180910390fd5b600454905090565b600660009054906101000a900460ff1661063e576040517f08c379a00000000000000000000000000000000000000000000000000000000081526004016106359061076f565b60405180910390fd5b600160009054906101000a900473ffffffffffffffffffffffffffffffffffffffff1673ffffffffffffffffffffffffffffffffffffffff168173ffffffffffffffffffffffffffffffffffffffff16146106ce576040517f08c379a00000000000000000000000000000000000000000000000000000000081526004016106c590610c63565b60405180910390fd5b6000600660006101000a81548160ff02191690831515021790555050565b600082825260208201905092915050565b7f54726164653a205468697320636f6e7472616374206973206e6f742076616c6960008201527f6400000000000000000000000000000000000000000000000000000000000000602082015250565b60006107596021836106ec565b9150610764826106fd565b604082019050919050565b600060208201905081810360008301526107888161074c565b9050919050565b7f54726164653a2054726164696e67206f746865722077616c6c6574206e6f7700600082015250565b60006107c5601f836106ec565b91506107d08261078f565b602082019050919050565b600060208201905081810360008301526107f4816107b8565b9050919050565b6000819050919050565b61080e816107fb565b82525050565b60006020820190506108296000830184610805565b92915050565b600080fd5b600073ffffffffffffffffffffffffffffffffffffffff82169050919050565b600061085f82610834565b9050919050565b61086f81610854565b811461087a57600080fd5b50565b60008135905061088c81610866565b92915050565b6000602082840312156108a8576108a761082f565b5b60006108b68482850161087d565b91505092915050565b600081519050919050565b600082825260208201905092915050565b60005b838110156108f95780820151818401526020810190506108de565b83811115610908576000848401525b50505050565b6000601f19601f8301169050919050565b600061092a826108bf565b61093481856108ca565b93506109448185602086016108db565b61094d8161090e565b840191505092915050565b60006020820190508181036000830152610972818461091f565b905092915050565b7f4e487b7100000000000000000000000000000000000000000000000000000000600052601160045260246000fd5b60006109b4826107fb565b91506109bf836107fb565b9250827fffffffffffffffffffffffffffffffffffffffffffffffffffffffffffffffff038211156109f4576109f361097a565b5b828201905092915050565b7f54726164653a20446f6573206e6f74206d617463682074686520707269636500600082015250565b6000610a35601f836106ec565b9150610a40826109ff565b602082019050919050565b60006020820190508181036000830152610a6481610a28565b9050919050565b600081905092915050565b50565b6000610a86600083610a6b565b9150610a9182610a76565b600082019050919050565b6000610aa782610a79565b9150819050919050565b7f54726164653a2053656e6420457468206661696c000000000000000000000000600082015250565b6000610ae76014836106ec565b9150610af282610ab1565b602082019050919050565b60006020820190508181036000830152610b1681610ada565b9050919050565b610b2681610854565b82525050565b6000606082019050610b416000830186610b1d565b610b4e6020830185610b1d565b610b5b6040830184610805565b949350505050565b6000610b6e826108bf565b610b788185610a6b565b9350610b888185602086016108db565b80840191505092915050565b6000610ba08284610b63565b915081905092915050565b7f54726164653a205472616e73666572206e6674206661696c0000000000000000600082015250565b6000610be16018836106ec565b9150610bec82610bab565b602082019050919050565b60006020820190508181036000830152610c1081610bd4565b9050919050565b7f54726164653a20546869732061646472657373206973206e6f74206f776e6572600082015250565b6000610c4d6020836106ec565b9150610c5882610c17565b602082019050919050565b60006020820190508181036000830152610c7c81610c40565b905091905056fea2646970667358221220f9db1ab518fcb21fb46dcdb562c8a9797e1967736d1d81b85106242db29e9cb764736f6c634300080a0033a26469706673582212201b407ccae5fcd889def53098c65609a30171b67e92e32928c2865fe2612b09a364736f6c634300080a0033",
  "immutableReferences": {},
  "source": "// SPDX-License-Identifier: MIT\npragma solidity 0.8.10;\n\nimport \"./multiOwner.sol\";\nimport \"./trade.sol\";\nimport \"@openzeppelin/contracts/token/ERC721/ERC721.sol\";\nimport \"@openzeppelin/contracts/utils/Counters.sol\";\nimport \"@openzeppelin/contracts/token/ERC721/extensions/ERC721URIStorage.sol\";\nimport \"@openzeppelin/contracts/token/ERC20/IERC20.sol\";\n\ncontract GGanbuCollection is ERC721URIStorage, Ownable {\n    using Counters for Counters.Counter;\n    Counters.Counter private _tokenIds;\n    event burnNft(uint256 tokenId);\n    mapping(uint256 => bool) private auction;\n    string private collectionURI;\n\n    event _sell(\n        address indexed contractAddr,\n        address collection,\n        uint256 tokenId,\n        uint256 price\n    );\n    event _cancel(\n        address indexed contractAddr,\n        address collection,\n        uint256 tokenId\n    );\n\n    constructor(\n        string memory collectionName,\n        string memory collectionSymbol,\n        string memory _collectionURI\n    ) ERC721(collectionName, collectionSymbol) {\n        collectionURI = _collectionURI;\n    }\n\n    function mintNFT(string memory tokenURI)\n        public\n        onlyOwner\n        returns (uint256)\n    {\n        _tokenIds.increment();\n        uint256 newItemId = _tokenIds.current();\n        _mint(msg.sender, newItemId);\n        _setTokenURI(newItemId, tokenURI);\n        return newItemId;\n    }\n\n    function getCollectionURI() public view returns (string memory) {\n        return collectionURI;\n    }\n\n    function burn(uint256 tokenId) public onlyOwner returns (bool) {\n        require(\n            msg.sender == ownerOf(tokenId),\n            \"Collection: This address is not owner\"\n        ); // nft owner    .\n        ERC721URIStorage._burn(tokenId);\n        emit burnNft(tokenId);\n        return true;\n    }\n\n    function sell(uint256 tokenId, uint256 price) public returns (address) {\n        require(\n            msg.sender == ownerOf(tokenId),\n            \"Collection: This address is not owner\"\n        ); // nft owner    .\n        require(!auction[tokenId], \"Collection: Can not sell this NFT\"); //  \n        auction[tokenId] = true;\n        address tradeContract = address(\n            new trade(msg.sender, address(this), tokenId, price)\n        ); //trade contract \n        _approve(tradeContract, tokenId); //tradeContract transferFrom    \n        //addOwnership(tradeContract);//  nft   collection   .   \n        emit _sell(tradeContract, address(this), tokenId, price); //event \n        return tradeContract;\n    }\n\n    function cancel(uint256 tokenId, address contractAddr)\n        public\n        returns (bool)\n    {\n        require(\n            msg.sender == ownerOf(tokenId),\n            \"Collection: This address is not owner\"\n        ); // nft owner    .\n        require(!auction[tokenId], \"Collection: Can not sell this NFT\"); // \n        //trade \n        //\n        auction[tokenId] = false;\n        //trade contract \n        emit _cancel(contractAddr, address(this), tokenId); //event \n        return true;\n    }\n\n    function getIsSelling(uint256 tokenId) public view returns (bool) {\n        return auction[tokenId];\n    }\n}\n",
  "sourcePath": "/Users/hyun/codestates/BEB_01_final4/test/contracts/collection.sol",
  "compiler": {
    "name": "solc",
    "version": "0.8.10+commit.fc410830.Emscripten.clang"
  },
  "schemaVersion": "3.4.3",
  "updatedAt": "2022-01-08T03:05:10.438Z",
  "devdoc": {
    "kind": "dev",
    "methods": {
      "approve(address,uint256)": {
        "details": "See {IERC721-approve}."
      },
      "balanceOf(address)": {
        "details": "See {IERC721-balanceOf}."
      },
      "getApproved(uint256)": {
        "details": "See {IERC721-getApproved}."
      },
      "isApprovedForAll(address,address)": {
        "details": "See {IERC721-isApprovedForAll}."
      },
      "name()": {
        "details": "See {IERC721Metadata-name}."
      },
      "ownerOf(uint256)": {
        "details": "See {IERC721-ownerOf}."
      },
      "safeTransferFrom(address,address,uint256)": {
        "details": "See {IERC721-safeTransferFrom}."
      },
      "safeTransferFrom(address,address,uint256,bytes)": {
        "details": "See {IERC721-safeTransferFrom}."
      },
      "setApprovalForAll(address,bool)": {
        "details": "See {IERC721-setApprovalForAll}."
      },
      "supportsInterface(bytes4)": {
        "details": "See {IERC165-supportsInterface}."
      },
      "symbol()": {
        "details": "See {IERC721Metadata-symbol}."
      },
      "tokenURI(uint256)": {
        "details": "See {IERC721Metadata-tokenURI}."
      },
      "transferFrom(address,address,uint256)": {
        "details": "See {IERC721-transferFrom}."
      }
    },
    "version": 1
  },
  "userdoc": {
    "kind": "user",
    "methods": {},
    "version": 1
  }
}